:020000040800F2
:10000000B0080020F51E0008CD1E0008CF1E000815
:10001000D11E0008D31E0008D51E000800000000F5
:10002000000000000000000000000000D71E0008D3
:10003000D91E000800000000DB1E0008DD1E0008BD
:100040001D1F0008211F0008251F0008291F000888
:100050002D1F0008311F0008351F0008391F000838
:100060003D1F0008411F0008451F0008491F0008E8
:100070004D1F0008511F0008551F0008591F000898
:100080005D1F0008611F0008651F0008691F000848
:100090006D1F0008711F0008751F0008791F0008F8
:1000A0007D1F0008811F0008851F0008891F0008A8
:1000B0008D1F0008911F0008951F0008991F000858
:1000C0009D1F0008A11F0008A51F0008A91F000808
:1000D000AD1F0008B11F0008B51F0008B91F0008B8
:1000E000BD1F0008C11F0008C51F0008C91F000868
:1000F000CD1F0008D11F0008D51F0008D91F000818
:10010000DD1F0008E11F0008E51F0008E91F0008C7
:10011000ED1F0008F11F0008F51F0008F91F000877
:10012000FD1F000801200008052000080920000824
:100130000D200008112000081520000819200008D3
:100140001D20000821200008252000082920000883
:100150002D20000831200008352000083920000833
:100160003D200008412000084520000849200008E3
:100170004D20000851200008552000085920000893
:100180005D20000861200008652000086920000843
:100190006D200008712000087520000879200008F3
:1001A0007D200008812000088520000889200008A3
:1001B0008D20000891200008952000089920000853
:1001C0009D200008A12000087CB50400012600F055
:1001D000FBFB0500002C01D101205AE0206A4028D9
:1001E00094F84000012801D1022052E0012084F857
:1001F000400094F8410000280AD1002084F8400013
:10020000200000F0E0FB41F28831200000F0B4FA59
:100210002068006830F4F850A168491E50EA0120B7
:1002200021680860A06C00902B0000222021200093
:1002300000F0A4FA0100C9B2002926D121680A6899
:1002400014490A40616852EA0162E1680A43E169BF
:100250000A43216A0A4321680A6021684A680E49F4
:100260000A40216952EA014261690A43A1690A43CD
:1002700021684A602168096851F001012268116013
:1002800000216164012184F84110002184F84010AC
:10029000C0B276BD2FFFFF00FEF8E0FF10B50400EE
:1002A000002C01D101201AE094F84000012801D16E
:1002B000022014E0012084F8400020680068400813
:1002C000400021680860200000F084FB002060648A
:1002D000002084F84100002084F84000002010BD78
:1002E0002DE9F84304000D0016005FF0010800F04E
:1002F0006BFB0700A8690028E8690028286A002825
:1003000094F84000012801D102203DE0012084F84A
:10031000400094F8410001282FD1002060640220A1
:1003200084F8410000963B0000222021200000F0CC
:1003300025FA81464846C0B2002820D10022290073
:10034000200000F044FA686A002812D100963B00B1
:1003500001220221200000F011FA81464846C0B275
:1003600000280CD102202168C860012084F84100D7
:1003700005E0012084F8410001E05FF0020900205F
:1003800084F840004846C0B2BDE8F2832DE9F84346
:1003900005000C001600002700F016FB80462868B8
:1003A00010F1200995F84000012801D102205EE0FB
:1003B000012085F8400095F84100012850D1002027
:1003C0006864002C45D0122085F841002868006937
:1003D000401CE86228680069401CA8626C622868BA
:1003E000406930F0406029684861E86A002815D00B
:1003F0000096434601220421280000F0BFF90700BF
:100400003800C0B2002809D1686A411C69620078CE
:1004100089F80000E86A401EE862E6E73800C0B2EA
:10042000002812D10096434601220221280000F044
:10043000A5F907003800C0B2002806D102202968BB
:10044000C860280000F04CF90700012085F8410041
:1004500008E0686C50F0080068640120070001E0C3
:1004600002200700002085F840003800C0B2BDE837
:10047000F2832DE9FC4705000C001600002700F070
:10048000A3FA80462868D0F81890286810F1200A4E
:1004900095F84000012801D1022063E0012085F891
:1004A000400095F84100012855D100206864002CD7
:1004B0004AD0222085F8410028680069401CA863C2
:1004C00028680069401C68632C632868406930F024
:1004D000406050F08060296848612868C0F8189032
:1004E000A86B002815D0009643460122062128005B
:1004F00000F044F907003800C0B2002809D1286B89
:10050000411C29639AF800100170A86B401EA86373
:10051000E6E73800C0B2002812D100964346012217
:100520000221280000F02AF907003800C0B2002894
:1005300006D102202968C860280000F0D1F8070021
:10054000012085F8410008E0686C50F008006864FC
:100550000120070001E002200700002085F840008C
:100560003800C0B2BDE8F6872DE9FC4704000D0055
:1005700016001F005FF0010800F026FA8146A86906
:100580000028E8690028286A002894F8400001281B
:1005900001D102204CE0012084F8400094F8410091
:1005A00001283ED100206064422084F84100009779
:1005B0004B4600222021200000F0E0F88246504601
:1005C000C0B200282FD13068216888627068216825
:1005D0004862B0682168C8622068016831F440014F
:1005E0003069014351F4800120680160F068A8621D
:1005F0005FF000622900200000F0E9F800974B4608
:1006000001220821200000F0B9F882465046C0B20D
:10061000002808D108202168C860012084F8410022
:1006200001E05FF0020A002084F840005046C0B2AA
:10063000BDE8F6872DE9F84304000D0016005FF0D1
:10064000010800F0C1F90700A8690028E86900283E
:10065000286A002894F84000012801D102203DE0DA
:10066000012084F8400094F8410001282FD1002097
:100670006064822084F84100A06C00903B0000225E
:100680002021200000F07AF881464846C0B20028B8
:100690001FD12068016831F00801706801432068AB
:1006A0000160706808280BD1306821680863102049
:1006B0002168C8602068006850F4801021680860D4
:1006C0005FF040622900200000F081F801E05FF057
:1006D0000209002084F840004846C0B2BDE8F28319
:1006E0007CB50400002500F06FF9060094F8410085
:1006F00080073ED5002084F840002068006840074D
:1007000011D52068006830F0040021680860E06BB3
:1007100000F07EF905002800C0B2002803D0606C0C
:1007200050F0040060642068006850F00200216806
:100730000860A06C0090330001220221200000F02C
:100740001DF805002800C0B200280BD10220216846
:10075000C860A06C0090330000222021200000F02F
:100760000DF805002800C0B2002802D1012084F84D
:1007700041002800C0B276BD816470472DE9F04188
:1007800005000E0090461F00069C286880683042D5
:1007900001D0012000E000204146C0B2C9B2884229
:1007A00012D014F1010FF0D0002C04D000F00CF99D
:1007B000C01B8442E9D2042085F84100686C50F0E7
:1007C00001006864012000E00020BDE8F08110B461
:1007D0004B6A002B06D0B2F1406F03D08B6A5B1ED0
:1007E000046823618B69002B79D00B6A002B3ED003
:1007F0008B680468E361CB69002B20D0CC6A0B6B5B
:100800001C434B6B1C434B6A1C434B6954EA8344A7
:100810000B691C430B6A1C43CB681C43CB691C430C
:100820008B691C430B681C43144303685C61B2F181
:10083000406F00F0C6804B680468A361C1E0CC6AD9
:100840000B6B1C434B6B1C434B6A1C434B6954EAB8
:1008500083440B691C430B6A1C43CB691C438B69A3
:100860001C430B681C43144303685C61A9E0CB691B
:10087000002B1ED0CC6A0B6B1C434B6B1C434B6A8A
:100880001C434B6954EA83440B6A1C43CB681C43EA
:10089000CB691C438B691C430B681C4314430368DE
:1008A0005C61B2F1406F00F08C804B680468A3611A
:1008B00087E0CC6A0B6B1C434B6B1C434B6A1C439D
:1008C0004B6954EA83440B6A1C43CB691C438B6914
:1008D0001C430B681C43144303685C6171E00B6AA2
:1008E000002B39D08B680468E361CB69002B1DD0E5
:1008F000CC6A0B6B1C434B6B1C434B6A1C434B6910
:1009000054EA83440B691C430B6A1C43CB681C43A9
:10091000CB691C438B691C43144303685C61B2F1CF
:10092000406F4ED04B680468A3614AE0CC6A0B6B01
:100930001C434B6B1C434B6A1C434B6954EA834476
:100940000B691C430B6A1C43CB691C438B691C431A
:10095000144303685C6134E0CB69002B1BD0CC6A84
:100960000B6B1C434B6B1C434B6A1C434B6954EA97
:1009700083440B6A1C43CB681C43CB691C438B69C3
:100980001C43144303685C61B2F1406F19D04B689B
:100990000468A36115E04B6A002B12D0CC6A0B6B84
:1009A0001C434B6B1C434B6A1C434B6954EA834406
:1009B0000B6A1C43CB691C438B691C4314430368BB
:1009C0005C6110BC7047704701480068704700BF09
:1009D000AC000020704730B4002513E050F8042B21
:1009E000D30744BFA9F101039A18091F042942F84B
:1009F000045BFAD213468C0744BF15809B1CC907C1
:100A000048BF1D7050F8041B0029E7D130BC704767
:100A100070B50400A56DFFF7D7FF060094F8350008
:100A2000022806D080206065002084F83400012070
:100A30003BE02068006830F01600216808602068FC
:100A4000406930F0800021684861206C002802D1A4
:100A5000A06C002805D02068006830F008002168EC
:100A6000086020680068400840002168086020682D
:100A70000068C0070ED5FFF7A7FF801B0628F6D336
:100A800020206065002084F83400032084F83500BD
:100A900003200AE03F21E06D8140A960002084F836
:100AA0003400012084F83500002070BD2DE9FC41A0
:100AB00004000026002C01D10120D8E12078C007D5
:100AC0006DD5DFF89405016811F00C01042909D0F7
:100AD000006810F00C0008280ED1DFF880050068CF
:100AE000400209D5DFF86C050068800357D56068BF
:100AF000002854D10120BAE16068B0F5803F06D1EA
:100B0000DFF85005016851F48031016026E060682B
:100B100000280AD1DFF83C05016831F4803101601A
:100B2000016831F48021016018E06068B0F5A02F01
:100B30000AD1DFF82005016851F4802101600168C5
:100B400051F48031016009E0DFF80805016831F4F3
:100B500080310160016831F4802101606068002803
:100B60000ED0FFF731FF0500DFF8E80400688003CE
:100B700015D4FFF729FF401B6528F5D3032076E144
:100B8000FFF722FF0500DFF8CC040068800306D5DC
:100B9000FFF71AFF401B6528F5D3032067E1207893
:100BA000800752D5DFF8B004016811F00C0F09D0AE
:100BB000006810F00C00082816D1DFF8A0040068C7
:100BC000400211D4DFF88C040168890704D5E1687C
:100BD000012901D001204AE1016831F0F8012269C0
:100BE00051EAC201016030E0E06800281AD0DFF865
:100BF0006474386850F001003860FFF7E5FE0500C6
:100C00003868800706D4FFF7DFFE401B0328F7D3C0
:100C100003202CE1386830F0F800216950EAC10067
:100C2000386012E0DFF82C74386840084000386003
:100C3000FFF7CAFE05003868800706D5FFF7C4FE37
:100C4000401B0328F7D3032011E12078000728D5A3
:100C50006069002812D0DFF80874386850F001008D
:100C60003860FFF7B1FE05003868800719D4FFF738
:100C7000ABFE401B0328F7D30320F8E0DFF8E07356
:100C80003868400840003860FFF79EFE050038686D
:100C9000800706D5FFF798FE401B0328F7D30320F3
:100CA000E5E02078400740F18780DFF8C0733868BE
:100CB000C0000AD4386850F080503860386810F0AE
:100CC00080500090009801200600DFF8A483D8F837
:100CD0000000C00513D4D8F8000050F48070C8F8A4
:100CE0000000FFF771FE0500D8F80000C00506D42B
:100CF000FFF76AFE401B6528F6D30320B7E0A06823
:100D0000012806D1DFF86C03016851F00101016090
:100D100025E0A06800280AD1DFF8580301684908D7
:100D200049000160016831F00401016017E0A0682A
:100D300005280AD1DFF83C03016851F00401016085
:100D4000016851F00101016009E0DFF82803016842
:100D5000490849000160016831F004010160A068A0
:100D6000002810D0FFF730FE0500DFF80803006808
:100D7000800719D4FFF728FE401B41F289318842D1
:100D8000F3D3032073E0FFF71FFE0500DFF8E40252
:100D90000068800708D5FFF717FE401B41F2893134
:100DA0008842F3D3032062E03000C0B2012803D1AF
:100DB000386830F080503860A069002856D0DFF8DD
:100DC0009802006810F00C0008284DD0A069022895
:100DD00037D1DFF88072386830F080703860FFF704
:100DE000F3FD80463868800107D5FFF7EDFDB0EBD5
:100DF00008000328F6D3032039E0E169206A0143A3
:100E0000606A51EA8011A06A4008401E51EA004120
:100E1000E06A51EA006151F00051DFF840020160E0
:100E2000386850F080703860FFF7CEFD05003868F4
:100E300080011BD4FFF7C8FD401B0328F7D3032014
:100E400015E0DFF81072386830F080703860FFF716
:100E5000BBFD05003868800108D5FFF7B5FD401BD4
:100E60000328F7D3032002E0012000E00020BDE8C2
:100E7000F6812DE9F04104000D000026002C01D17F
:100E800001209FE0DFF8F071386810F00F00A842F1
:100E90000BD238680009000128433860386810F028
:100EA0000F00A84201D001208CE02078800719D5DE
:100EB0002078400705D5DFF8A001016851F4E05122
:100EC00001602078000705D5DFF88C01016851F436
:100ED00060410160DFF880110A6832F0F002A0681A
:100EE00002430A602078C00737D56068012806D120
:100EF000DFF860010068800311D4012062E06068BF
:100F0000022806D1DFF84C010068800107D40120D7
:100F100058E050480068800701D4012052E0DFF813
:100F20003881D8F800108908890060680143C8F842
:100F30000010FFF749FD0600D8F8000010F00C0083
:100F40006168B0EB810F08D0FFF73EFD801B41F2D6
:100F500089318842F0D3032034E0386810F00F0064
:100F600085420BD238680009000128433860386890
:100F700010F00F00A84201D0012023E020784007A4
:100F800006D535490A6832F4E052E06802430A6047
:100F90002078000707D53048016831F460412269A4
:100FA00051EAC201016000F00FF834492A4A126880
:100FB000C2F30312895CC8402B4908600F2000F07F
:100FC00061F80020BDE8F0812DE9F0410024002502
:100FD000002600272048006810F00C00002804D0EC
:100FE000042804D0082804D031E01E4830E024480A
:100FF0002EE0DFF86880D8F8000010F03F00040011
:10100000D8F8000040020CD5D8F80000C0F38810D2
:101010001B49A1FB00012200002300F059F8050044
:101020000BE0D8F80000C0F388100E49A1FB0001C6
:101030002200002300F04CF80500D8F80000C0F3AF
:101040000140401C40000600B5FBF6F000E00548FA
:10105000BDE8F08100380240083802400438024000
:10106000743802400024F40004000020403802409C
:101070000070004070380240003C0240E41E00084E
:1010800040787D0110B504004FF47A700D4909785D
:10109000B0FBF1F00C490968B1FBF0F000F0B0F9D9
:1010A000002801D001200CE0102C09D200222100E0
:1010B0005FF0FF3000F08FF904480460002000E08A
:1010C000012010BD080000200400002000000020C6
:1010D000BBBBE1B1B2F5803F80F07E80022A1ED911
:1010E0008C46B1FBF2F102FB11C31B0443EA10432F
:1010F000B3FBF2FC02FB1C3380B240EA0343B3FBB8
:10110000F2F002FB103240EA0C4000237047022A42
:1011100005D98446B0FBF2F002FB10C270474AB119
:1011200005D100F0010249085FEA30007047002253
:101130000023704700F078B90B0002000021002066
:101140007047904271EB030CF6D3B3F5803F2FD27A
:10115000F0B5B3FA83F7B1FA81F4A7F10F0E3D1B96
:101160005340CEF1200602FA0EF2F3415340B5F19E
:101170000F0746D80F3C2C444140C4F12006A04044
:10118000F1414140B1FBF3F603FB1611A2FB06450A
:10119000001BA94102D2761E8018594180EA010243
:1011A00021FA0EF362FA0EF200215A403046F0BDE9
:1011B00030B4B1FBF3FC03FB1C11A2FB0C45001B7C
:1011C000A94103D2ACF1010C8018594130BC024650
:1011D0000B46604600217047B2F1807F65D3F0B5C1
:1011E000B2FA82F7B1FA81F4C7F10F063D1B22FA79
:1011F00006F307F1110EF24120355A40B5F10F0701
:10120000B8D94140C4F12006A040F1414140B1FBB2
:10121000F3FC03FB1C11A2FB0C45001BA94103D2EC
:10122000BCF1010C801859410F2F12D30F3FC90395
:1012300041EA5041B1FBF3F603FB1611A2FB064550
:10124000D4EBC030A94102D2761E8018594146EA3B
:10125000CC3C07B34140C7F12006B840F1414140C2
:10126000B1FBF3F603FB1611A2FB0645001BA941D7
:1012700002D2761E8018594180EA010221FA0EF34B
:10128000C7F1200462FA0EF20CFA07F05A402CFA69
:1012900004F13043F0BD80EA010221FA0EF300218F
:1012A00062FA0EF260465A40F0BD8C46B1FBF2F194
:1012B00002FB11C31B0243EA1063B3FBF2FC02FB07
:1012C0001C331B024CEA002043EA1063B3FBF2FC20
:1012D00002FB1C331B024CEA002043EA1063B3FB01
:1012E000F2FC02FB1C331B024CEA002043EA1063B1
:1012F000B3FBF2FC02FB1C324CEA002000237047D7
:1013000010B410F00703DFF8044122684FF6FF0124
:101310000A40DFF8FC1051EA03210A43226010BCA6
:101320007047DFF8E8000068C0F30220704710B48F
:10133000020052B2002A05D40A01364B040064B2FE
:101340001A5508E00A01344B040064B214F00F048B
:10135000234403F8042C10BC704770B4030013F04E
:101360000704D4F10700052801D3042001E0D4F1DB
:101370000700251D072D01D2002500E0E51E0126EE
:1013800016FA00F0401E0140A94016FA05F56D1E40
:101390002A401143080070BC704710B50400601E5D
:1013A000B0F1807F01D301200EE0601E1B49086070
:1013B0000F215FF0FF30FFF7BAFF002018490860E7
:1013C000072018490860002010BD10B50400200057
:1013D000FFF796FF10BD2DE9F04104000D00160047
:1013E0000027FFF79EFF8046320029004046FFF7A6
:1013F000B4FF0100200040B2FFF799FFBDE8F08183
:1014000010B504002000FFF7C8FF10BD0CED00E090
:101410000000FA0500E400E018ED00E014E000E050
:1014200018E000E010E000E07047000010B5CC4C80
:10143000CC4820602000FEF731FF002801D00120B9
:1014400055E000F095F9C8480021C1610021016212
:1014500000214162002141610021C162002101633C
:10146000002141634FF40051C160C0480021016177
:101470000121C160102181605FF480014161012080
:1014800060600420A0601020E0608020B0FA80F04E
:10149000401E20614FF4A06060610020A061002028
:1014A000E061002020622000FEF78EFE002801D0BF
:1014B00001201CE0200000F01BF8002801D00120D2
:1014C00015E0200000F0ACF8002801D001200EE06B
:1014D000200000F04DF8002801D0012007E0200096
:1014E00000F028F8002801D0012000E0002010BD05
:1014F00070B504009C4D4FF48070A8616620286090
:101500000020686241F28836320029002000FEF790
:10151000E7FE002801D001200BE09920286032006E
:1015200029002000FEF7DCFE002801D0012000E0A9
:10153000002070BD1CB504008B494FF440708861D9
:10154000EB2008604FF44060C8615FF04070486273
:101550000A20486100200190002000906A46200087
:10156000FFF768F8002801D0012000E0002016BD38
:1015700030B58FB004004FF4807007908520019043
:1015800000200890002009905FF080700A900020F1
:10159000069001200B9000200C9000200D90002060
:1015A0000E9041F288352A0001A92000FEF798FE2E
:1015B000002801D0012031E02A0069462000FEF712
:1015C00058FF002801D0012028E0200000F09EF8FC
:1015D000002801D0012021E0812001909DF8001019
:1015E00011F00F010A225FF07060B0FA80F08240C3
:1015F00011438DF800102A0001A92000FEF770FEAB
:10160000002801D0012009E02A0069462000FEF7E9
:10161000BDFE002801D0012000E000200FB030BD49
:10162000F0B595B004004FF4807007900020099049
:101630000020069000200C9000200D9000200E90BD
:1016400010201190002013905FF48000149065200A
:101650000190002008905FF080750A9501200B90A2
:101660003F4E41F288373A0001A93000FEF738FEBC
:10167000002801D0012047E03A0069463000FEF71B
:10168000F8FE002801D001203EE006200190002055
:101690000A903A0001A93000FEF722FE002801D08E
:1016A000012031E002200F900220109001201290C2
:1016B000052001900A953B000FAA01A93000FEF712
:1016C00053FF002801D001201EE06120019001207D
:1016D0000B909DF8000010F03F0050F040008DF896
:1016E00000003A0001A93000FEF7FAFD002801D001
:1016F000012009E03A0069463000FEF747FE002865
:1017000001D0012000E0002015B0F0BD70B504004C
:10171000154D4FF44070A8610620286000206862D3
:1017200041F28836320029002000FEF7D9FD00285A
:1017300001D0012013E00D4A022010600220506009
:10174000052028605FF040706862330029002000A7
:10175000FEF70AFF002801D0012000E0002070BD44
:101760000C000020001000A0580000209000002075
:1017700010B586B03648016851F00201016000687A
:1017800010F00200059005983248016851F00201FE
:101790000160016831F0020101602F48016851F0D9
:1017A00002010160016811F00201059105990168CB
:1017B00051F008010160016811F0080105910599D7
:1017C000016851F010010160006810F010000590F0
:1017D0000598402000900A200490022001900120EA
:1017E0000290022003901D4C6946200000F03CF856
:1017F00004200090092004900020029069462000F7
:1018000000F032F84FF40060009009200490144C6E
:101810006946200000F028F84FF48050009009201D
:1018200004906946200000F01FF804200090092071
:10183000049069460B4800F017F84FF400500090F0
:10184000092004906946200000F00EF806B010BD93
:101850003838024018380240303802400004024054
:10186000000C0240001002402DE9F8410022002344
:10187000002400260025102D80F00B81012717FA87
:1018800005F213000A681A4014009C4240F0FF80E1
:101890004A68022A02D04A68122A1FD12A00D208B6
:1018A00000EB8202D2F820C05FF00F0E15F00702A5
:1018B000D2B292001EFA02FE3CEA0E0CD1F810E001
:1018C00015F00702D2B292001EFA02FE5EEA0C0C7C
:1018D00066462A00D20800EB82021662D0F800C0E9
:1018E0005FF0030E2A00D2B252001EFA02F23CEA66
:1018F000020C91F8048018F003082A00D2B25200BA
:1019000018FA02F858EA0C0CC0F800C04A68012A1C
:1019100008D04A68022A05D04A68112A02D04A68CB
:10192000122A1BD186682A00D2B252001EFA02F295
:101930009643D1F80C802A00D2B2520018FA02F86D
:1019400058EA060686604268AF40BA434F68C7F35C
:101950000017AF403A439446C0F804C0C6682A0056
:10196000D2B252001EFA02FE36EA0E068F682A0034
:10197000D2B2520097403E43C6604A68D20040F15E
:101980008680DFF81421176857F4804717601268C3
:1019900012F480420092009ADFF800C12A009208F7
:1019A0005CF822705FF00F0E15F00302D2B29200C5
:1019B0001EFA02FE37EA0E07DFF8E420904201D15A
:1019C000002631E0DFF8DC20904201D101262BE037
:1019D000DFF8D420904201D1022625E0DFF8CC20A8
:1019E000904201D103261FE0DFF8C420904201D1CC
:1019F000042619E02F4A904201D1052614E02E4A10
:101A0000904201D106260FE02C4A904201D10726D0
:101A10000AE02B4A904201D1082605E0294A90426B
:101A200001D1092600E00A26F6B215F00302D2B26F
:101A30009200964037432A0092084CF82270224EBA
:101A40003268A243D1F804C05FEACC3C00D52243FF
:101A500032601E4F3E68A643D1F804C05FEA8C3C5A
:101A600000D526433E601A4F3A68A243D1F804C01D
:101A70005FEACC2C00D522433A60164F3E68A6435D
:101A8000D1F804C05FEA8C2C00D526433E606D1C63
:101A9000F1E6BDE8F1810000443802400838014019
:101AA000000002400004024000080240000C024016
:101AB000001002400014024000180240001C0240C6
:101AC0000020024000240240003C0140043C014050
:101AD000083C01400C3C0140BFF34F8FBFF36F8FB8
:101AE000002049490860BFF34F8FBFF36F8F47480D
:101AF000016851F400310160BFF34F8FBFF36F8F66
:101B00007047BFF34F8FBFF36F8F4048016831F4C8
:101B10000031016000203C490860BFF34F8FBFF3E4
:101B20006F8F704710B4002039490860BFF34F8FA2
:101B300038480168C1F34E32C1F3C900030043F6CF
:101B4000E07010EA421050EA8370334C20601800B5
:101B5000431E0028F3D11000421E0028ECD1BFF331
:101B60004F8F2A48046854F480340460BFF34F8FC9
:101B7000BFF36F8F10BC704710B400202449086079
:101B8000BFF34F8F2148016831F480310160BFF30A
:101B90004F8F20480168C1F34E32C1F3C9000300E2
:101BA00043F6E07010EA421050EA83701B4C20604C
:101BB0001800431E0028F3D11000421E0028ECD16B
:101BC000BFF34F8FBFF36F8F10BC704780B500F02D
:101BD00072F800F07DF800F030F800F027F80028E7
:101BE00001D000F029F800F06CF800200C490860E2
:101BF0000C480D49096801605FF01041096881F3E4
:101C0000088800688047FEE750EF00E014ED00E030
:101C100084ED00E080ED00E060EF00E074EF00E0B4
:101C200010E000E0A80000200400009010B500249F
:101C3000FFF7FCFB204310BDFEE730B591B0002458
:101C4000012005905FF48030069002200B905FF435
:101C500080000C9019200D904FF4D8700E90022047
:101C60000F900820109005A8FEF720FF050028001F
:101C7000C0B2002800D0FEE700F03EF804002000CB
:101C8000C0B2002800D0FEE70F2000900220019093
:101C9000002002904FF4A05003904FF48050049025
:101CA00006216846FFF7E5F80100C9B2002900D017
:101CB000FEE711B030BD80B5FFF70EFFFFF732FF32
:101CC00001BD80B5FFF71DFFFFF756FF01BD000006
:101CD00080B50748016851F4807101600320FFF767
:101CE00074FB0F20FFF7CEF900F004F8002002BDCE
:101CF000003C0240704700007CB500241B4801688E
:101D000051F080510160006810F080500090009800
:101D1000154E306850F480303060FEF755FE0500F7
:101D2000104C2068C00308D4FEF74EFE401B40F262
:101D3000E9318842F4D3032013E0306850F40030D6
:101D40003060FEF741FE06002068800308D4FEF7ED
:101D50003BFE801B40F2E9318842F5D3032000E0CE
:101D6000002076BD04700040007000404038024002
:101D70000F48016851F4700101600E49086850F085
:101D80000100086000200C4A10600A680B480240FD
:101D90000A600B480B4A1060086830F48020086025
:101DA0000020094908605FF000600849086070473A
:101DB00088ED00E00038024008380240FFFFF6FEE0
:101DC00010300024043802400C38024008ED00E0D6
:101DD00030B450F8041B79B10268436802440830FB
:101DE000DC0744BFA9F10104E31852F8045B43F88F
:101DF000045B091FF9D1ECE730BC704710B5074907
:101E000079441831064C7C44163404E00A68081DF5
:101E1000114488470146A142F8D110BD2C000000B2
:101E20004C0000004EF68851CEF20001086840F4E4
:101E300070000860BFF34F8FBFF36F8F4FF00070DB
:101E4000E1EE100A704700008FEBFFFFA4000000D6
:101E50000C0000200000000079FFFFFF0C000000D4
:101E6000B0000000000000200000000000F00DF8AD
:101E7000002801D0FFF7C2FFAFF300800020AFF3CE
:101E80000080FFF7A3FE00F002F80120704700F089
:101E900001B800000746384600F002F8FBE70000F2
:101EA00080B5AFF30080024A11001820ABBEFBE7FB
:101EB0002600020003480168034A1278891801606D
:101EC000704700BFAC000020080000207047FEE70C
:101ED000FEE7FEE7FEE770477047704780B5FFF703
:101EE000E9FF01BD00000000000000000102030442
:101EF000060708090148804701480047711D00088E
:101F0000051F0008AFF30080FFF78CFFFFF7AEFF5F
:101F1000100000000024F40001000000FFF7FEBFE5
:101F2000FFF7FEBFFFF7FEBFFFF7FEBFFFF7FEBFE5
:101F3000FFF7FEBFFFF7FEBFFFF7FEBFFFF7FEBFD5
:101F4000FFF7FEBFFFF7FEBFFFF7FEBFFFF7FEBFC5
:101F5000FFF7FEBFFFF7FEBFFFF7FEBFFFF7FEBFB5
:101F6000FFF7FEBFFFF7FEBFFFF7FEBFFFF7FEBFA5
:101F7000FFF7FEBFFFF7FEBFFFF7FEBFFFF7FEBF95
:101F8000FFF7FEBFFFF7FEBFFFF7FEBFFFF7FEBF85
:101F9000FFF7FEBFFFF7FEBFFFF7FEBFFFF7FEBF75
:101FA000FFF7FEBFFFF7FEBFFFF7FEBFFFF7FEBF65
:101FB000FFF7FEBFFFF7FEBFFFF7FEBFFFF7FEBF55
:101FC000FFF7FEBFFFF7FEBFFFF7FEBFFFF7FEBF45
:101FD000FFF7FEBFFFF7FEBFFFF7FEBFFFF7FEBF35
:101FE000FFF7FEBFFFF7FEBFFFF7FEBFFFF7FEBF25
:101FF000FFF7FEBFFFF7FEBFFFF7FEBFFFF7FEBF15
:10200000FFF7FEBFFFF7FEBFFFF7FEBFFFF7FEBF04
:10201000FFF7FEBFFFF7FEBFFFF7FEBFFFF7FEBFF4
:10202000FFF7FEBFFFF7FEBFFFF7FEBFFFF7FEBFE4
:10203000FFF7FEBFFFF7FEBFFFF7FEBFFFF7FEBFD4
:10204000FFF7FEBFFFF7FEBFFFF7FEBFFFF7FEBFC4
:10205000FFF7FEBFFFF7FEBFFFF7FEBFFFF7FEBFB4
:10206000FFF7FEBFFFF7FEBFFFF7FEBFFFF7FEBFA4
:10207000FFF7FEBFFFF7FEBFFFF7FEBFFFF7FEBF94
:10208000FFF7FEBFFFF7FEBFFFF7FEBFFFF7FEBF84
:10209000FFF7FEBFFFF7FEBFFFF7FEBFFFF7FEBF74
:0420A000FFF7FEBF89
:0200000490006A
:1000000000000520810F0090E9260090EB2600906B
:10001000ED260090EF260090F126009000000000F1
:10002000000000000000000000000000517000907F
:10003000F326009000000000F170009055710090D0
:10004000D10F0090D10F0090D10F0090D10F0090F0
:10005000D10F0090D10F0090D10F0090D10F0090E0
:10006000D10F0090D10F0090D10F0090D10F0090D0
:10007000D10F0090D10F0090D10F0090D10F0090C0
:10008000D10F0090D10F0090D10F0090D10F0090B0
:10009000D10F0090D10F0090D10F0090D10F0090A0
:1000A000D10F0090D10F0090D10F0090D10F009090
:1000B000D10F0090D10F0090D10F0090D10F009080
:1000C000D10F0090D10F0090D10F0090D10F009070
:1000D000D10F0090D10F0090D10F0090D10F009060
:1000E000D10F0090D10F0090D10F0090D10F009050
:1000F000D10F0090D10F0090D10F0090D10F009040
:10010000D10F0090D10F0090D10F0090D10F00902F
:10011000D10F0090D10F0090F5260090D10F0090E4
:10012000D10F0090D10F0090D10F0090D10F00900F
:10013000D10F0090D10F0090D10F0090D10F0090FF
:10014000D10F0090D10F0090D10F0090D10F0090EF
:10015000D10F0090D10F0090D10F0090D10F0090DF
:10016000D10F0090D10F0090D10F0090D10F0090CF
:10017000D10F0090D10F0090D10F0090D10F0090BF
:10018000D10F0090D10F0090D10F0090D10F0090AF
:10019000D10F0090D10F0090D10F0090D10F00909F
:1001A00001270090D10F00900D270090D10F0090F3
:1001B000D10F0090D10F0090D10F0090D10F00907F
:0801C000D10F0090D10F009057
:1001D00010B5054C237833B9044B13B10448AFF381
:1001E00000800123237010BD940200200000000055
:1001F0002CE6019008B5034B1BB103490348AFF34C
:10020000008008BD00000000980200202CE601904C
:10021000034613F8012B002AFBD1181A0138704746
:1002200001F0FF01102A2BDB10F0070F08D010F8A7
:10023000013B013A8B422DD010F0070F42B3F6D1AB
:10024000F0B441EA012141EA014122F007047FF0C4
:1002500000070023F0E80256083C85EA010586EA1B
:10026000010685FA47F5A3FA87F586FA47F6A5FA57
:1002700087F68EB9EED1F0BC01F0FF0102F0070263
:1002800032B110F8013B013A83EA010313B1F8D10E
:100290000020704701387047002D06BF35460338EF
:1002A000073815F0010F07D1013015F4807F02BF28
:1002B000013015F4C03F0130F0BC0138704700BF79
:1002C00081F0004102E000BF83F0004330B54FEA07
:1002D00041044FEA430594EA050F08BF90EA020F74
:1002E0001FBF54EA000C55EA020C7FEA645C7FEA07
:1002F000655C00F0E2804FEA5454D4EB5555B8BF2A
:100300006D420CDD2C4480EA020281EA030382EA9A
:10031000000083EA010180EA020281EA0303362D2C
:1003200088BF30BD11F0004F4FEA01314FF4801CFF
:100330004CEA113102D0404261EB410113F0004F11
:100340004FEA03334CEA133302D0524263EB4303C8
:1003500094EA050F00F0A780A4F10104D5F1200E66
:100360000DDB02FA0EFC22FA05F2801841F10001C1
:1003700003FA0EF2801843FA05F359410EE0A5F195
:1003800020050EF1200E012A03FA0EFC28BF4CF0C6
:10039000020C43FA05F3C01851EBE37101F000457C
:1003A00007D54FF0000EDCF1000C7EEB00006EEB89
:1003B0000101B1F5801F1BD3B1F5001F0CD3490813
:1003C0005FEA30004FEA3C0C04F101044FEA44526A
:1003D00012F5800F80F09A80BCF1004F08BF5FEAF1
:1003E000500C50F1000041EB045141EA050130BDD1
:1003F0005FEA4C0C404141EB0101013C28BFB1F5E3
:10040000801FE9D291F0000F04BF01460020B1FA2D
:1004100081F308BF2033A3F10B03B3F120020CDA00
:100420000C3208DD02F1140CC2F10C0201FA0CF0DE
:1004300021FA02F10CE002F11402D8BFC2F1200C43
:1004400001FA02F120FA0CFCDCBF41EA0C019040F9
:10045000E41AA2BF01EB0451294330BD6FEA040442
:100460001F3C1CDA0C340EDC04F11404C4F120022D
:1004700020FA04F001FA02F340EA030021FA04F33F
:1004800045EA030130BDC4F10C04C4F1200220FA96
:1004900002F001FA04F340EA0300294630BD21FAD4
:1004A00004F0294630BD94F0000F83F4801306BF9A
:1004B00081F480110134013D4EE77FEA645C18BF8E
:1004C0007FEA655C29D094EA050F08BF90EA020F25
:1004D00005D054EA000C04BF1946104630BD91EA1D
:1004E000030F1EBF0021002030BD5FEA545C05D120
:1004F0004000494128BF41F0004130BD14F580045F
:100500003CBF01F5801130BD01F0004545F0FE41D2
:1005100041F470014FF0000030BD7FEA645C1ABF07
:10052000194610467FEA655C1CBF0B46024650EA3E
:10053000013406BF52EA033591EA030F41F400216A
:1005400030BD00BF90F0000F04BF0021704730B5F0
:100550004FF4806404F132044FF000054FF00001C5
:1005600050E700BF90F0000F04BF0021704730B586
:100570004FF4806404F1320410F0004548BF40425B
:100580004FF000013EE700BF42004FEAE2014FEAB0
:1005900031014FEA02701FBF12F07F4393F07F4F8B
:1005A00081F06051704732F07F4208BF704793F08E
:1005B0007F4F04BF41F40021704730B54FF46074A1
:1005C00001F0004521F000411CE700BF50EA0102A4
:1005D00008BF704730B54FF000050AE050EA01024D
:1005E00008BF704730B511F0004502D5404261EBBD
:1005F00041014FF4806404F132045FEA915C3FF4FE
:10060000D8AE4FF003025FEADC0C18BF03325FEA9A
:10061000DC0C18BF033202EBDC02C2F1200300FA4B
:1006200003FC20FA02F001FA03FE40EA0E0021FA70
:1006300002F11444BDE600BF70B54FF0FF0C4CF45E
:10064000E06C1CEA11541DBF1CEA135594EA0C0F10
:1006500095EA0C0F00F0DEF82C4481EA030621EA4B
:100660004C5123EA4C5350EA013518BF52EA033586
:1006700041F4801143F4801338D0A0FB02CE4FF038
:100680000005E1FB02E506F00042E0FB03E54FF068
:100690000006E1FB03569CF0000F18BF4EF0010E60
:1006A000A4F1FF04B6F5007F64F5407404D25FEA5C
:1006B0004E0E6D4146EB060642EAC62141EA55510F
:1006C0004FEAC52040EA5E504FEACE2EB4F1FD0C51
:1006D00088BFBCF5E06F1ED8BEF1004F08BF5FEACF
:1006E000500E50F1000041EB045170BD06F0004681
:1006F00046EA010140EA020081EA0301B4EB5C042E
:10070000C2BFD4EB0C0541EA045170BD41F4801125
:100710004FF0000E013C00F3AB8014F1360FDEBF4A
:10072000002001F0004170BDC4F10004203C35DA26
:100730000C341BDC04F11404C4F1200500FA05F3A9
:1007400020FA04F001FA05F240EA020001F000424A
:1007500021F0004110EBD37021FA04F642EB0601C0
:100760005EEA430E08BF20EAD37070BDC4F10C04EA
:10077000C4F1200500FA04F320FA05F001FA04F2AE
:1007800040EA020001F0004110EBD37041F100019A
:100790005EEA430E08BF20EAD37070BDC4F12005A5
:1007A00000FA05F24EEA020E20FA04F301FA05F20D
:1007B00043EA020321FA04F001F0004121FA04F2B5
:1007C00020EA020000EBD3705EEA430E08BF20EA85
:1007D000D37070BD94F0000F0FD101F000464000BF
:1007E00041EB010111F4801F08BF013CF7D041EA41
:1007F000060195F0000F18BF704703F00046520045
:1008000043EB030313F4801F08BF013DF7D043EA15
:100810000603704794EA0C0F0CEA135518BF95EACB
:100820000C0F0CD050EA410618BF52EA4306D1D152
:1008300081EA030101F000414FF0000070BD50EA71
:10084000410606BF1046194652EA430619D094EAFB
:100850000C0F02D150EA013613D195EA0C0F05D1E5
:1008600052EA03361CBF104619460AD181EA030139
:1008700001F0004141F0FE4141F470014FF00000F1
:1008800070BD41F0FE4141F4780170BD70B54FF08C
:10089000FF0C4CF4E06C1CEA11541DBF1CEA13550C
:1008A00094EA0C0F95EA0C0F00F0A7F8A4EB0504EE
:1008B00081EA030E52EA03354FEA013100F08880E5
:1008C0004FEA03334FF0805545EA131343EA1263AE
:1008D0004FEA022245EA111545EA10654FEA002663
:1008E0000EF000419D4208BF964244F1FD0404F51C
:1008F000407402D25B084FEA3202B61A65EB030578
:100900005B084FEA32024FF480104FF4002CB6EB34
:10091000020E75EB030E22BFB61A754640EA0C00B4
:100920005B084FEA3202B6EB020E75EB030E22BFF4
:10093000B61A754640EA5C005B084FEA3202B6EB35
:10094000020E75EB030E22BFB61A754640EA9C00F4
:100950005B084FEA3202B6EB020E75EB030E22BFC4
:10096000B61A754640EADC0055EA060E18D04FEA82
:10097000051545EA16754FEA06164FEAC30343EA22
:1009800052734FEAC2025FEA1C1CC0D111F4801FEF
:100990000BD141EA00014FF000004FF0004CB6E7E8
:1009A00011F4801F04BF01430020B4F1FD0C88BF87
:1009B000BCF5E06F3FF6AFAEB5EB030C04BFB6EB92
:1009C000020C5FEA500C50F1000041EB045170BD85
:1009D0000EF0004E4EEA113114EB5C04C2BFD4EBB2
:1009E0000C0541EA045170BD41F480114FF0000E36
:1009F000013C90E645EA060E8DE60CEA135594EAB2
:100A00000C0F08BF95EA0C0F3FF43BAF94EA0C0FB4
:100A10000AD150EA01347FF434AF95EA0C0F7FF429
:100A200025AF104619462CE795EA0C0F06D152EA7D
:100A300003353FF4FDAE1046194622E750EA410661
:100A400018BF52EA43067FF4C5AE50EA41047FF472
:100A50000DAF52EA43057FF4EBAE12E74FF0FF3CD7
:100A600006E000BF4FF0010C02E000BF4FF0010CA8
:100A70004DF804CD4FEA410C7FEA6C5C4FEA430C21
:100A800018BF7FEA6C5C1BD001B050EA410C0CBF70
:100A900052EA430C91EA030F02BF90EA020F0020D2
:100AA000704710F1000F91EA030F58BF994208BF39
:100AB00090422CBFD8176FEAE37040F001007047F6
:100AC0004FEA410C7FEA6C5C02D150EA013C07D14D
:100AD0004FEA430C7FEA6C5CD6D152EA033CD3D098
:100AE0005DF8040B704700BF8446104662468C4692
:100AF0001946634600E000BF01B5FFF7B7FF0028C5
:100B000048BF10F1000F01BD4DF808EDFFF7F4FFED
:100B10000CBF012000205DF808FB00BF4DF808ED78
:100B2000FFF7EAFF34BF012000205DF808FB00BF9B
:100B30004DF808EDFFF7E0FF94BF012000205DF8BD
:100B400008FB00BF4DF808EDFFF7CEFF94BF012072
:100B500000205DF808FB00BF4DF808EDFFF7C4FF6B
:100B600034BF012000205DF808FB00BF4FEA410CB4
:100B70007FEA6C5C02D150EA013C0AD14FEA430C97
:100B80007FEA6C5C02D152EA033C02D14FF00000D4
:100B900070474FF0010070474FEA410212F5001212
:100BA00015D211D56FF47873B3EB625212D94FEAB4
:100BB000C12343F0004343EA505311F0004F23FA9E
:100BC00002F018BF404270474FF00000704750EAF3
:100BD000013005D111F0004008BF6FF000407047B0
:100BE0004FF00000704700BF4FEA4102B2F1E0430E
:100BF00024BFB3F5001CDCF1FE5C0DD901F0004C04
:100C00004FEAC0024CEA5070B2F1004F40EB830053
:100C100008BF20F00100704711F0804F21D113F17F
:100C20003872BCBF01F00040704741F480114FEAB8
:100C30005252C2F11802C2F1200C10FA0CF320FA41
:100C400002F018BF40F001004FEAC1234FEAD3235E
:100C500003FA0CFC40EA0C0023FA02F34FEA4303C8
:100C6000CCE77FEA625307D150EA01331EBF4FF051
:100C7000FE4040F44000704701F0004040F0FE406C
:100C800040F40000704700BF53B94AB9002908BFBB
:100C900000281CBF4FF0FF314FF0FF3000F06EB95D
:100CA000ADF1080C6DE904CE00F006F8DDF804E0C3
:100CB000DDE9022304B070472DE9F047089D0446A2
:100CC0008C46002B40F083808A42174647D9B2FAFF
:100CD00082F242B1C2F1200024FA00F09140974024
:100CE00040EA010C94404FEA1748230CBCFBF8F68D
:100CF0001FFA87FE08FB16C143EA014306FB0EF10B
:100D0000994209D9FB1806F1FF3080F01981994208
:100D100040F21681023E3B445B1AA4B2B3FBF8F0EA
:100D200008FB103344EA034400FB0EFEA64509D934
:100D30003C1900F1FF3380F00581A64540F20281A5
:100D400002383C4440EA0640A4EB0E0400261DB1E4
:100D5000D4400023C5E900433146BDE8F08702B91D
:100D6000FFDEB2FA82F2002A50D1CB1B4FEA174EB7
:100D70001FFA87F80126B3FBFEFC210C0EFB1C3387
:100D800041EA034108FB0CF38B4207D979180CF1B7
:100D9000FF3002D28B4200F2E9808446C91AA3B226
:100DA000B1FBFEF00EFB101143EA014408FB00F812
:100DB000A04507D93C1900F1FF3302D2A04500F24B
:100DC000D9801846A4EB080440EA0C40BFE78B42E8
:100DD00009D9002D00F0B1800026C5E90001304698
:100DE0003146BDE8F087B3FA83F6002E4AD18B4234
:100DF00002D3824200F2B880841A61EB0301012021
:100E00008C46002DA8D0C5E9004CA5E7C2F120030F
:100E100020FA03F6974001FA02F04FEA174ED94044
:100E20003043030CB1FBFEF61FFA87F80EFB1611D8
:100E300043EA014306FB08F1994204FA02F409D996
:100E4000FB1806F1FF3C80F08D80994240F28A80C9
:100E5000023E3B445B1A81B2B3FBFEF00EFB103343
:100E600041EA034100FB08F38B4207D9791800F1EE
:100E7000FF3C73D28B4271D902383944CB1A40EA15
:100E8000064678E7C6F1200C03FA06F422FA0CF3C2
:100E90001C4320FA0CF701FA06F34FEA144E21FA2C
:100EA0000CF11F433B0CB1FBFEF91FFA84F80EFB5B
:100EB000191143EA014109FB08FA8A4502FA06F2D0
:100EC00000FA06F308D9611809F1FF3048D28A45C3
:100ED00046D9A9F102092144A1EB0A01BFB2B1FB35
:100EE000FEF00EFB101147EA014700FB08F8B84579
:100EF00007D9E71900F1FF312ED2B8452CD90238B5
:100F0000274440EA0940A7EB0807A0FB02894F45A8
:100F1000C64649461AD317D05DB1B3EB0E0267EB54
:100F2000010707FA0CFCF2404CEA0202F740C5E95F
:100F3000002700263146BDE8F0872E4628460BE7FD
:100F40000646E9E61846FDE64345E5D2B8EB020E53
:100F500069EB04010138DFE70846D2E760468DE718
:100F60008146B9E7664675E730464AE7ACF1020CC0
:100F7000394413E702383C4424E700BF704700BF00
:100F8000DFF834D0002103E00C4B5B5843500431B0
:100F90000B480C4B42189A42F6D30B4A02E000234E
:100FA00042F8043B094B9A42F9D302F01DFE1AF0B5
:100FB00009FE00F0C5FE704700000520C023029026
:100FC0000000002094020020940200204C290120FF
:100FD000FEE700F03DBC00F0ABBC406870474160EC
:100FE00070470000094A136843F080731360A2F54C
:100FF0004E42074B52F84C1C4C3A0B431360A2F57F
:101000007B62136843F0010313607047FCED00E05E
:1010100055CEACC5511A01EB5301B1FBF3F070474B
:10102000014B1868704700BF041000E0704710B50E
:1010300004460C211AF057FC204610BD036810B579
:101040001B69044631B19847A26863689B1A18442B
:10105000606010BD9847A060FBE7704730B58DB069
:101060000D46144600212C2201A81AF0F1FD01A81A
:1010700002F0FAFC9DF8040030B1BDF80630012002
:101080002B60BDF8103023600DB030BD10B50446A4
:1010900004211AF028FC204610BD000008B54FF4CA
:1010A00088714FF4F07002F089FC28B1034B1E21C7
:1010B000034A04481AF046FC08BD00BFB0E60190A0
:1010C000D1E60190FBE6019070477047704770478A
:1010D000012380F8741080F8753070470020704745
:1010E00000207047836B0BB10846184770474FF6D6
:1010F000FF707047406803689B691847704700009D
:1011000038B50446FFF7E0FF204600F0E1FC236815
:10111000094A4FF04041D3F884502046074BA84776
:101120000023074D84F84A302846FFF75BFF012370
:10113000256184F86C3038BD00FC03C000F807C09E
:10114000B002002008B531B90A4B4FF42B710A4A9E
:101150000A481AF0F7FBC0E90F12003A0849436445
:1011600018BF0122003B0A7018BF0123054A137003
:1011700008BD00BF5CE7019094E70190E2E70190B1
:10118000C2230120C323012008B5094B1B888B42D1
:1011900003D8084B1B88934205D9074B9E21074A69
:1011A00007481AF0CFFB074B1980074B1A8008BD80
:1011B000B8230120BA23012027E801908AE8019092
:1011C000E2E70190BE230120C023012008B5036897
:1011D0000446DB6F9847236820465B6F984700F012
:1011E000F1F823682046DB6E98474FF4805107489A
:1011F00003F0DDFB0821064803F0D9FB00F0E2F81C
:1012000023682046DB6E9847F8E700BF00200240C5
:101210000028024010B5044609F018FB2368204658
:10122000D3F8A430BDE81040184700F039BC00F0F6
:101230003DBC000070B500F069FC104A0023C2F804
:101240008430BFF34F8FD2F8803043F6E074C3F39D
:10125000C900C3F34E335B0103EA0406014646EAC4
:1012600081750139C2F87452F9D2203B13F1200F75
:10127000F2D1BFF34F8FBFF36F8F70BD00ED00E071
:1012800000F0EABB00F052BC00F05ABC00F0EEBB2C
:1012900008F094BC10B504467C211AF024FB2046CB
:1012A00010BD90F877301BB1406803681B68184781
:1012B0001846704790F834100D4B10B590F87440F4
:1012C0001A788C4209D03AB90A490B4A088814881E
:1012D000108001220C801A7010BD002AFCD0064A32
:1012E0000449148808880C8010800022F3E700BFAE
:1012F000BC230120BA230120B8230120014608B5F0
:10130000034B186801B1012109F0BAFA012008BDA8
:10131000C4230120034B00225A609A60024A1A60DB
:10132000704700BFB002002090E60190012100222A
:1013300008B5084605F060FB0A4B186028B90A4B4F
:1013400028210A4A0A481AF0FDFA00220421012045
:1013500005F018FC074B186018B9074B2C21034AFD
:10136000F0E708BDC0020020A0E90190E9E9019082
:1013700018EA0190BC0200205FEA0190024B4FF096
:10138000FF31186805F08EBBC0020020014B1868C1
:1013900005F0C2BBC0020020024B0021186805F016
:1013A00081BB00BFC0020020FFF7F0BF002303484D
:1013B00003491A46006805F02BBC00BFBC020020A0
:1013C0000400002013B50023074C01A91A46206829
:1013D00005F060FC4FF0FF33002201A9206805F002
:1013E00059FC02B010BD00BFBC02002003685B6C5A
:1013F00018470120704703689B6A18470D4B82B05D
:101400001A6B42F400021A631A6B02F40002019292
:10141000019A1A6942F400021A611A6922F4000260
:101420001A61054B054A1A614FF08062044B9A60BD
:1014300002B0704700380240042801204D1400908B
:1014400000E100E040F2EF3070470000024B1B6803
:10145000586803685B691847C423012008B50B2846
:101460000BD8DFE800F01206100A0A0A0A0808087A
:101470000808012008BD0520FCE7054B6621054A48
:1014800005481AF05FFA0020F4E70220F2E700BFF7
:10149000A1EA0190BCEA019006EB019008B50A2888
:1014A00009D8DFE800F010060E080808080606064E
:1014B0000600012008BD054B8721054A05481AF0A2
:1014C00041FA0020F6E70220F4E700BFA1EA01900C
:1014D0004BEB019006EB01902DE9F84391F81D804C
:1014E0000C464046FFF7BAFFA77F05463846FFF790
:1014F000B5FF06463846FFF7D1FFA18A628B4B4BFA
:10150000521A9E461A649A61228B521A1A61E28A12
:10151000586342EA014221695A646268D963DA6019
:10152000D4F800C094F81C90BCF1800F4FEA096217
:1015300030D014D8BCF1200F45EA020069D0BCF1CC
:10154000400F66D0BCF1040F20D02A43374BB8457A
:1015500042F40032DA6148D140F2012214E0BCF5D5
:10156000807F07D0BCF5007FEFD142F4003242F01B
:10157000090203E042F4003242F00A02DA61E26852
:101580001A625E6259612A4A1A604DE040F40030E6
:10159000D861F6E7A0682A43041D42F40032DC62F9
:1015A000DA6102785E62596142B1012A1FD0214B93
:1015B00040F21111204A21481AF0C4F9428801244E
:1015C000D969501E21F47F4222F0100242EA002223
:1015D000DA61164BDA6942F02002DA61DA699206C2
:1015E000FCD410229A60002CCDD1154ACCE7428859
:1015F000B9F1FF04D96902F1FF3018BF012421F4C9
:101600007F4222F0100242EA002242F01002DA6128
:10161000DFE740F40030064BCEF81C00CEF8246023
:10162000CEF81410CEF80030BDE8F88300B00240C8
:101630000102020096EB0190B0EB019006EB0190E5
:101640000102010038B50C46887FFFF727FF174BD2
:10165000A58AE18A628B41EA05415863521B5964AD
:101660002169D9631A642568082D0ED19A611A611F
:1016700058620F4A207F42EA0062DA61E2681A6229
:101680000C4A5961D9601A6038BD0022D8611A61CC
:10169000E1680A0A4809C1F3C40102F4784200F47F
:1016A000FC6002430A439A63034AECE700B002403D
:1016B000090001000102020001020300054B4FF086
:1016C00080620360044BC3F88820BFF34F8FBFF3E1
:1016D0006F8F7047F8EB019000E100E010B5044611
:1016E000FFF7ECFF4FF4426120461AF0FCF8204669
:1016F00010BD000070B504460A4B0C30002625468C
:10170000602260602672667245F8203B294609F027
:101710001FFA04F54263EE602035AB42FBD1204650
:1017200070BD00BFF8EB0190012070470C2070479E
:101730000C2303FB0100083070470C2303FB01005E
:1017400008307047012070474FF4F67070474FF42F
:10175000F67303FB0100083070474FF4F67303FB88
:10176000010008307047012070471020704700EBDF
:1017700001100830704700EB011008307047084630
:1017800001F0EEB8034B10B50446036007F024FBEC
:10179000204610BDB0EC019010B50446FFF7F2FFF3
:1017A000142120461AF09FF8204610BD034B10B5B7
:1017B0000446036007F010FB204610BD7CEC01904E
:1017C00010B50446FFF7F2FF4FF4FA7120461AF005
:1017D0008AF8204610BD0000034B10B50446036094
:1017E00007F0FAFA204610BD48EC019010B5044607
:1017F000FFF7F2FF182120461AF075F8204610BDB9
:10180000084B10B50446036000F50870FFF7BAFFF7
:1018100004F12C00FFF7CAFF04F11400FFF7DCFF0E
:10182000204610BDE4EC019008B50248FFF7E8FF40
:1018300008BD00BFC802002010B50446FFF7E0FF56
:101840004FF4667120461AF04EF8204610BD000095
:101850002DE9F34100F0C6FF0024054600F0C6FF65
:10186000234601462246284600940DF0DBFF254B17
:10187000254A2046254D1A6001F01EFC24480DF033
:1018800013FF2B78BFF35B8FDB0735D428461AF0A4
:101890002CF888B31F4C204B04F5107604F114008B
:1018A00004F12C0804F5087723606060C4F8088010
:1018B000E760266107F092FA184B4046636107F033
:1018C0008DFA174B3846E36207F088FA154B04F59A
:1018D0000D70C4F8203201F06FFC224604F50D7142
:1018E000304601F05FFC304601F03AF828461AF025
:1018F00008F80D481AF044F80C4802B0BDE8F04171
:10190000FFF7FEBB2024012000130020C4020020AA
:1019100008000020C8020020E4EC019048EC01908F
:101920007CEC0190B0EC019029180090841200200A
:101930000148FFF74BBC00BF8412002070B5244E55
:10194000244B254C3046254D2360FFF7D3FE284617
:1019500011F03AF8224B00224FF4807121481A8589
:1019600083F82A20DA621A861A6683F86C201A67CE
:10197000DC60C3E912121C49C3E919124FF08071EF
:101980005967012183F8781018490B604FF4F07102
:1019900001801748C3E90422C3E90622C3E90822EB
:1019A000C3E90E22C3E91022C3E91422C3E91622B7
:1019B000C3E9016501804FF488710E4883F8342033
:1019C00001800D4801800D490A700D4A1A6070BDF2
:1019D000640600204CE701906006002004130020FC
:1019E00084120020B823012001000001C42301203B
:1019F000BE230120BA230120C0230120BC230120E3
:101A0000D8E801900148FFF759BE00BF64060020E6
:101A1000104A002370B5C2F88430BFF34F8FD2F85C
:101A2000803043F6E074C3F3C900C3F34E335B0167
:101A300003EA0406014646EA81750139C2F8745288
:101A4000F9D2203B13F1200FF2D1BFF34F8FBFF338
:101A50006F8F70BD00ED00E0034B902283F85A2396
:101A600083F85823704700BF00E100E0094A0A49A3
:101A7000D3680A48C3F30A03013B9BB20B80116988
:101A8000C1F30A01013901801364536B43F0010370
:101A900053637047006801407E1300207C130020D0
:101AA000014B986A704700BF84680140024B0122D5
:101AB000996243F8602C704784680140034B5B696E
:101AC000DB0301D5FFF7A4BF704700BF00ED00E0C6
:101AD00070B5044608F0C7F823681D6E0BF066F970
:101AE00001462046A84723682046054AD3F884507B
:101AF0004FF040410023AC46BDE87040604700BF56
:101B000000FC03C008F096B808F0A0B808B508F0CB
:101B10005BF8044B5B69DB0303D5BDE80840FFF7C6
:101B200077BF08BD00ED00E008F0ABB9034B4FF004
:101B300080629A604FF080729A60704700E100E026
:101B4000084B4FF08062C3F88820BFF34F8FBFF37C
:101B50006F8F4FF08072C3F88820BFF34F8FBFF3B1
:101B60006F8F704700E100E0134B144A1B6C118823
:101B70008B4210B5124C13D1124B198803F012FC92
:101B8000226892F86630013382F86630FFF70EFC67
:101B9000206808F05BFE0020BDE81040FFF795BA12
:101BA00003F000FC0020FFF791FA20680368BDE80D
:101BB00010401B6A184700BF006801407E130020D8
:101BC000C42301207C1300200149002006F000BC42
:101BD000FD12009008B5642004F0F4FEFBE700005D
:101BE0002DE9F843284802F00BF9002842D14FF0C4
:101BF0000008DFF8A89020A5D5E9004520A7D7E97F
:101C000000670221214802F0D2FE4FF47A711E488B
:101C100002F070F948BB1C4802F0C0F9FEF792FCD4
:101C200022462B46FEF708FDFEF7DEFFFEF7ACFC72
:101C300032463B46FEF748FB42464B46FEF726FE41
:101C40000022134BFEF742FBFEF7CEFFDFED117AC9
:101C500007EE100A67EE277A17EE900AFEF794FC5B
:101C600002460B460C481AF069FE4FF47A7004F0F5
:101C7000A9FEC6E7BDE8F8836666666666660A4042
:101C800052B81E85EB51E83F30270120002002406A
:101C90000000394000007A44F0EC0190000004405C
:101CA00010B594B01022002102240AA819F0D0FF28
:101CB0001422002103A819F0CBFF1F4B012119208A
:101CC0001A6C42F080521A641B6C03F0805301932B
:101CD000019B1A4B1A6842F440421A601B6803F4D5
:101CE00040430293029B4FF48033CDE908134FF435
:101CF0008003CDE90E434FF4D873CDE9100308A853
:101D0000CDE9124403F0A4FB00B1FEE703F068FB49
:101D100000B1FEE70F234FF4A0520590072103A85E
:101D2000CDE903344FF48053CDE9062303F07CFD65
:101D300000B1FEE714B010BD003802400070004052
:101D400080B598B0102200214FF000550BA8012457
:101D500019F07EFF1C2602F039FAAD4B0BA8ADF846
:101D60002C4040F20117CDE90C53AA4B03250E93EA
:101D700002F04EFA4FF040438DF82D4000240BA89E
:101D80000C938DF834608DF83740ADF83A4002F08E
:101D90003FFA02230BA88DF837508DF82D3016230B
:101DA000ADF83A708DF8343002F032FA4FF010434B
:101DB0000BA88DF8346004260C938DF82D508DF807
:101DC0003740ADF83A4002F023FA17230BA88DF8FC
:101DD0002D608DF834308DF83750ADF83A7002F040
:101DE00017FA05230BA88DF838408DF82D301323F2
:101DF0008DF8343002F00CFA304602F0F7F9BFF3F8
:101E00004F8FBFF36F8F844BC3F85042BFF34F8F98
:101E1000BFF36F8F5A6942F400325A61BFF34F8F9C
:101E2000BFF36F8FC3F88440BFF34F8FD3F8802088
:101E300043F6E074C2F3C900C2F34E32520102EA23
:101E40000406014646EA81750139C3F86052F9D2A9
:101E5000203A12F1200FF2D1BFF34F8F5A6942F4AA
:101E600080325A61BFF34F8FBFF36F8F01F0ECFEEA
:101E70000024FFF715FF142200210BA819F0E8FE3B
:101E8000664B082166481A6B012542F010021A635E
:101E90001A6B02F010020092009A1A6B42F00202D2
:101EA0001A631A6B02F002020192019A1A6B42F055
:101EB00001021A631A6B02F001020292029A1A6B73
:101EC00042F040021A631A6B02F040020392039A36
:101ED0001A6B42F400721A631A6B02F400720492D5
:101EE000049A1A6B42F008021A631A6B02F0080295
:101EF0000592059A1A6B42F480621A631A6B02F417
:101F000080620692069A1A6B42F020021A631A6BDC
:101F100002F020020792079A1A6B42F480721A6349
:101F20001A6B02F480720892089A1A6B42F08002CF
:101F30001A631A6B02F080020992099A1A6B42F036
:101F400004021A6300221B6B03F004030A930A9B2A
:101F500002F028FD002241F20201324802F022FD87
:101F600008230BA92E48CDE90B35CDE90D4402F02D
:101F700093FB41F202032B480BA9CDE90B35CDE9C8
:101F80000D4402F089FB2848284B848003600562D9
:101F9000C0E9054402F064F900B1FEE7244C254B8A
:101FA000C4E90200C4E90030C4E90A00C4E90C0035
:101FB000204602F071FA00B1FEE72946204602F001
:101FC00023FB034600B1FEE71B4804211B4A4024C3
:101FD0008360C0E900231022C0E90312802111921E
:101FE000C0E905410BA9C0E90733C0E90933CDE9D0
:101FF0000B22CDE90D22CDE90F2203F07BFF00B1CA
:10200000FEE701F0C1FC01F073FC0546C0B1FEE73C
:10201000120000030100010100ED00E00038024061
:1020200000280240002002406426012000300240C7
:102030000428012000B0024044280120400100A0F3
:10204000014634220BA85B4C19F002FE5A4B28269D
:10205000352740F2152C40F2352E2046A586256105
:1020600084F83650C4E900350923C4E905630B231D
:10207000C4E9077340F21B13C4E909C340F21D13FE
:10208000C4E90255C4E90BE303F094F800B1FEE79C
:102090004FF4887302214FF4F0724FF480650B9077
:1020A000ADF85C008DF85E001693CDE90E31FF218E
:1020B000CDE910100521CDE90C20CDE91402CDE9C0
:1020C000125102460BA9204603F03FF9034600B126
:1020D000FEE73A484FF4E132394903614362C0E90F
:1020E00000120C22C0E90233C0E90523C0E907331E
:1020F00004F00DFB00B1FEE7102200210BA8314CCB
:1021000019F0A6FD304A4FF48033012502262046FF
:102110002561A561E6616561C4E9002300232B4ABE
:10212000A36084F82030E362A262E36084F8303078
:1021300001F0C0FD00B1FEE7254B0BA92046CDE91B
:102140000B3505230D9301F02DFF00B1FEE71123A0
:1021500020460BA9CDE90B3601F024FF044600B15F
:10216000FEE7FEF736FF1B4903231B480E60CB60DA
:10217000C1E9015502F090FA04F094FB174A214698
:10218000174804F0C9FB174B174A21461860174837
:1021900004F0C2FB164B174A21461860164804F09B
:1021A000BBFB164B186016481AF04EFC04F094FB6B
:1021B000FEE700BF88260120006801407C2701203F
:1021C0000010014030270120002001400100000FD5
:1021D00012000010801300200020024080ED0190CA
:1021E000D51B0090602601205CED0190D70F009078
:1021F0007827012038ED0190E11B00900028012094
:10220000FBEC019000234FF0604030B5934201DBBE
:10221000104630BDD0F8804EE50707D5D0F8004E07
:10222000E40703D5CC5C056815B104700133EDE714
:1022300000BFF8E70268034B9A4201D101F016BDD6
:10224000704700BF00100040FEE700000D4B82B059
:102250000F216FF001001A6C42F080521A641A6C60
:1022600002F080520092009A5A6C42F480425A6402
:1022700000225B6C03F480430193019B02B001F0E8
:1022800051BF00BF00380240026882B0074B9A423B
:102290000AD103F58C335A6C42F480725A645B6C39
:1022A00003F480730193019B02B07047002001404A
:1022B000026882B0084B9A420BD1D3F8302803F55C
:1022C000006342F480521A631B6B03F48053019342
:1022D000019B02B0704700BF003002400E4B07B5B3
:1022E00002689A4215D1A3F5F04305215A201A6BD2
:1022F00042F400021A6300221B6B03F400030193F3
:10230000019B01F00FFF5A2003B05DF804EB01F0D0
:102310003BBF03B05DF804FB00B0024070B5ACB049
:1023200004461422002106A819F092FC8422002100
:102330000BA819F08DFC2268484B9A4240F08B8024
:102340000823052001220B93642310930223CDE977
:10235000113000230BA81393CDE9152303F042FBA2
:1023600008B1FFF771FF3E4B022400250E265A6C80
:1023700006A93C4842F080625A645A6C02F08062BE
:102380000092009A1A6B42F010021A631A6B02F064
:1023900010020192019A1A6B42F400721A631A6BCE
:1023A00002F400720292029A1A6B42F480621A637B
:1023B0001A6B02F480620392039A1A6B42F0400295
:1023C0001A631A6B02F040020492049A1A6B42F4E8
:1023D00080721A631B6B03F480730593059B1023B3
:1023E000CDE90634CDE908540A9602F055F94EF6C7
:1023F000FF7306A91C480A96CDE90634CDE90854B6
:1024000002F04AF9F72306A918480A96CDE90634DE
:10241000CDE9085402F040F94FF4805306A914485E
:10242000CDE906340923CDE908540A9302F034F9C2
:102430004FF4464306A90F480A96CDE90634CDE984
:10244000085402F029F958202A46052101F06AFEB5
:10245000582001F099FE2CB070BD00BF006801400B
:1024600000380240001002400024024000280240D0
:102470000018024000200240F0B5ABB00446142220
:10248000002104A819F0E4FB8422002109A819F016
:10249000DFFB2268214B9A423ED1402309A80993D1
:1024A00000231A9303F09EFA08B1FFF7CDFE1C4BF0
:1024B0000227002603255A6C072404A9194842F074
:1024C00010025A645A6C02F010020192019A1A6BBF
:1024D00042F002021A631A6B02F002020292029A9E
:1024E0001A6B42F001021A631B6B089403F001039C
:1024F0000393039B8023CDE90665CDE9043702F001
:10250000CBF84FF4007304A907480894CDE90437C9
:10251000CDE9066502F0C0F82BB0F0BD0010014017
:102520000038024000040240000002402B4BF0B58E
:102530001C6887B0002C4FD10122022703260C25EE
:102540001A6001A9264B27489A6B42F001029A6350
:102550009B6B039403F001030093009B4FF683737E
:10256000CDE90465CDE9013702F096F848F233135E
:1025700001A91D480595CDE90137CDE9034602F0D3
:102580008BF84CF2037301A918480595CDE9013782
:10259000CDE9034602F080F84FF63F0301A9144845
:1025A0000595CDE90137CDE9034602F075F82423FE
:1025B00001A910480595CDE90137CDE9034602F0A0
:1025C0006BF804230C480DEB03010595CDE90137A9
:1025D000CDE9034602F060F807B0F0BD9813002083
:1025E000003802400010024000180240000C024077
:1025F00000140240001C02400008024008B5144BC1
:102600001A6822BB01224FF6837112481A60124ADF
:10261000936B23F00103936302F022F948F2331124
:102620000E4802F01DF94CF203710D4802F018F942
:102630004FF63F010B4802F013F924210A4802F03B
:102640000FF904210948BDE8084002F009B908BDA6
:10265000941300200010024000380240001802408D
:10266000000C024000140240001C0240000802401E
:1026700010B5014688B00022362001F053FD362007
:1026800001F082FD144B01A903A81A6C134C42F00F
:1026900010021A641B6C03F010030293029B03F0F8
:1026A00083F903F061F90E4B4000236040F2E733F9
:1026B000E3600C4BB0FBF3F0013800236060204670
:1026C0002361A36003F0D4FD20B9204603F078FC19
:1026D00008B010BD0120FBE7003802407828012037
:1026E0000010004040420F007047FEE7FEE7FEE7A3
:1026F000FEE77047014803F0A5BC00BF7828012021
:10270000014802F0C5BD00BF88260120014801F044
:10271000F1BE00BF042801200120704708B519F060
:1027200043F9162303604FF0FF3008BD08B519F0D8
:102730003BF916230360FEE770B50E4614460025EC
:10274000A54201DB204670BDAFF300807055013516
:10275000F6E74FF0FF3070474FF4005300204B6016
:1027600070470120704700207047000008B50A4BF1
:102770000246196809B9094919601868694602448E
:102780008A4206D919F010F90C2303604FF0FF308C
:1027900008BD1A60FCE700BF9C13002050290120EF
:1027A000704710B50446042119F09DF8204610BD6D
:1027B00008B5032913D8DFE801F002060A0E00F07D
:1027C000C7FC006808BD00F0C3FC4068FAE700F0F1
:1027D000BFFC8068F6E700F0BBFCC068F2E70020B1
:1027E000F0E7000000487047B8ED019016207047F0
:1027F00013B5002451B1036801AA01948DF8034078
:102800009C680DF10303A04702B010BD0846FBE72A
:1028100040897047808970478088704783798088B5
:10282000184480B27047C07900F07F007047C079CB
:10283000C0097047704710B50446082119F053F8D5
:10284000204610BD704700F596730868496803C3B9
:1028500070477047704741607047704701230372AB
:1028600070477047704710B441680346C2689B6860
:10287000541001EB6200D20748BF0A595DF8044BBF
:1028800048BFD358184743682BB183682BB9C06839
:1028900000F001007047184670470120704710B5DE
:1028A00004460C2119F01FF8204610BD10B504464F
:1028B000102119F018F8204610BD10B504464FF449
:1028C000AC7119F010F8204610BD10B50AF06EFA80
:1028D0000368BDE810401B6B184710B50446D0F8DC
:1028E0003C0158B10368DB68984738B1D4F83C0123
:1028F00003689B6898470023C4F83C3110BD000072
:10290000F8B5044617460E460AF0BAFA104B0025F1
:102910001C6029460F4BC4E954760F4E2360306883
:102920000E4BC4E95255C4E950350368C4E94E550D
:102930009B689847284600F0BFFB336893F87620E1
:102940000AB1D86C00B9986811F089FE2046F8BD2C
:1029500010240120C0F20190C4230120A8F20190AC
:10296000064BC0F84401C0F848310023C0F84C3190
:1029700000F5A073C0F83C31704700BFC12A009039
:102980002DE9F84F07469068994688460368144633
:10299000DDF828A01B6A9847B0F5F67F05D2424BB8
:1029A000A321424A424818F0CDFF606803681B6AC1
:1029B00098470F2803D83F4BA4213C4AF2E7E06830
:1029C00003681B6A98470B2803D83B4BA521374A5D
:1029D000E8E70AF0EBF90AF037FAD9F8000010B18D
:1029E0000368DB689847D9F8000010B103681B68DA
:1029F0009847386810B103685B699847D8F80000B9
:102A000010B103685B689847386810B103681B68A9
:102A10009847D8F8000010B103689B689847E068B1
:102A200000214FF0000B03685B6A9847234B054673
:102A3000C0F804B00360594680F808B0A068036885
:102A40005B6A9847064600F011FC606859460368C7
:102A50005B6A98470446314600F0EEFBC9F8005027
:102A6000C8F800403E60E4B1231DCAF8003030468B
:102A70003368C4F808A0DB68F463984723682046ED
:102A80001B689847294630460BF02CFE2B682846D9
:102A90001B6998472B6828465B6998472046BDE824
:102AA000F88F2346E1E700BF80EF01900EF0019020
:102AB00012F1019059F10190FCF1019004F30190A1
:102AC000D0F8543107B500F59C710093044BD0F851
:102AD00050210448FFF754FF03B05DF804FB00BF2A
:102AE0000424012000240120006A7047406A7047D6
:102AF00070478B888069DB0A0A6850F8230010440D
:102B0000704710B5C2B1137BB3B1547BD27A2402A3
:102B100004F4E0641443C26998B202EB840213889F
:102B20008B4202D192F9020010BD05D8013804325F
:102B300080B20028F3D1F7E70020F5E710B504468E
:102B4000282118F0D0FE204610BD000030B589B015
:102B50000446BDF850500695BDF84C5005959DF8BB
:102B6000405004959DF83C5003959DF838500295CF
:102B70009DF8345001959DF8305000950BF08AF97E
:102B8000064B20462360119BA361129BE361159BBA
:102B90002362169B636209B030BD00BF28F3019029
:102BA0000020704781807047C18070470181704765
:102BB000418170477047704770477047704710B445
:102BC000C4880368121B84881B6D091B12B25DF850
:102BD000044B09B218474FF6FF7383814FF0FF3360
:102BE00003621368C3611060704770477047704795
:102BF0007047704790F825201AB190F8242002B150
:102C0000186070477047704710B504464FF4F6716E
:102C100018F069FE204610BD074A02600022C0E994
:102C20000122C0E90322C0E90522C0E907224FF4CE
:102C300080728284704700BF880B0290036870B571
:102C40000446DB6A154698472368204629461B6BD5
:102C5000BDE87040184700002DE9F04F044687B0EA
:102C600000250BF093FB27465F4B29462622E563A0
:102C700004F16C0847F8403B384618F0E9FF384645
:102C8000FFF7CAFFFF26594B4FF6FF7A2622294647
:102C90002364404684F8666004F5D879A566ADF8EB
:102CA00010A018F0D5FF4046DFF84CB1FFF7B4FF95
:102CB0004F4B84F8946004F19806E36604A9BDF8CC
:102CC00010304046A4F8923008F053FB304606F02E
:102CD00077FA29462622484618F0BAFF4846FFF7F9
:102CE0009BFF444B2A462946C4F8B0314FF47F037A
:102CF0003846A4F8DCA1C4F8E4314FF0120AC4F855
:102D0000D8B1C4F8E051A4F8E851FFF797FF38466E
:102D10004FF4F071FFF74AFF38464FF48871FFF720
:102D200047FF4FF07F432A4629464046A366FFF7F8
:102D300085FF0B2304A94046ADF8103008F019FBBD
:102D400030464E226421FFF779FF51463046F42386
:102D50001B22CDF800A006F0E0F864222B46304696
:102D60000A21009506F04AFB2946304606F05FF836
:102D7000112304A93046ADF8103006F0F9FB514696
:102D8000304606F085F83046142106F0DEF830466D
:102D9000012106F061F88F2248467821FFF74EFFA7
:102DA0004FF0FF3304A94846C4F8E031A4F8E451D9
:102DB000CDF810B0ADF8145008F0C7F8201D394612
:102DC000039006F0A9FC4146039806F0A5FC3146A5
:102DD000039806F0A1FC0398494606F09DFC2046A6
:102DE00007B0BDE8F08F00BF80F301901807029094
:102DF000FC0702907006029078EF01907047000087
:102E000030B5154D8DB02C78BFF35B8F14F00104F5
:102E10001ED1284618F069FDD0B13F2301220F4989
:102E200007930F4B0F4806930F4B0894039400949D
:102E3000CDE904430423CDE90944CDE901320A2355
:102E4000FFF784FE284618F05CFD084818F098FD4E
:102E500004480DB030BD00BFA0130020F004109056
:102E600078230290A413002088230290FD2D009067
:102E70007047000030B5154D8DB02C78BFF35B8FD7
:102E800014F001041ED1284618F02FFDD0B13F23C5
:102E900001220F4907930F4B0F4806930F4B0894DD
:102EA00003940094CDE904430423CDE90944CDE91A
:102EB00001321423FFF74AFE284618F022FD084885
:102EC00018F05EFD04480DB030BD00BFCC130020EB
:102ED000000510907C230290D01300208C230290D8
:102EE000712E00907047000030B5154D8DB02C78D4
:102EF000BFF35B8F14F001041ED1284618F0F5FCD7
:102F0000D0B13F2301220F4907930F4B0F4806937F
:102F10000F4B089403940094CDE904430423CDE9B6
:102F20000944CDE901322823FFF710FE284618F0A6
:102F3000E8FC084818F024FD04480DB030BD00BF7F
:102F4000F81300201005109080230290FC1300203D
:102F500090230290E52E00907047000030B5154D8B
:102F60008DB02C78BFF35B8F14F001041FD128467D
:102F700018F0BBFCD8B13F2301220F4907930F4B38
:102F80000F4806930F4B08940394CDE904430423A0
:102F9000CDE90944CDE9013200930D221423FFF756
:102FA000D5FD284618F0ADFC074818F0E9FC0448A8
:102FB0000DB030BD24140020200510908423029011
:102FC0002814002094230290592F0090002070476D
:102FD000002070470EB403B503AB002153F8042B57
:102FE00001930AF08BFD02B05DF804EB03B070476B
:102FF0000CB407B504AB53F8042B01930AF07EFD23
:1030000003B05DF804EB02B070470000436C10B5EC
:10301000044673B3038F2BB9184BC021184A1948C3
:1030200018F090FCC38E00EB43035B8C0BB30CF0E9
:10303000F5F8238F012B03D8134BC521134AEEE774
:10304000E28E40F63F10531C9BB2092B194688BFF5
:10305000A3F10A0104EB4101498C814209D10A2BF9
:1030600004EB420228BF0023508C04EB4303588436
:1030700051842046BDE810400BF0B4BFACF3019082
:10308000B5F3019060F40190AAF40190B8F40190B6
:103090000BF060BF10B586B002AC84E806001A469B
:1030A0000AAB214605930193099B0093089B09F005
:1030B000F3F906B010BD000038B518BB124B134829
:1030C0001B681349B3B11A689C681A441C44026017
:1030D0005A681A440A600F4B00221A8000F038F830
:1030E000054600F033F80C4B1C600C4B1D600C4B7C
:1030F000188007E00B4B03600B4B0B600B4B1C68FD
:10310000002CE8D138BD00BF50140020541400201A
:10311000581400205C140020142401201C240120D9
:1031200018240120DC051090D80510900C06109092
:10313000044B1B6853F82100034B1B6803EB400052
:10314000704700BF5814002054140020012070471D
:10315000004870476014002010B5074CFFF7FEFED2
:103160002060FFF7C1FE6060FFF74AFEA060FFF736
:1031700081FEE06010BD00BF60140020704710B5F4
:1031800004464FF4AC7118F0AEFB204610BD10B5EC
:103190000446D0F8540100F015F82046BDE8104070
:1031A00009F0D8BC10B50446FFF7AAFB014B204636
:1031B000236010BD94F501900022C0E90022027244
:1031C0007047000043681421013393FBF1F210B4FF
:1031D000436001FB123363B9037A53B1006840B115
:1031E00003689A68044B19684C1C1C605DF8044B1A
:1031F00010475DF8044B704770140020017270474F
:1032000070470438704710B50446102118F06BFB66
:10321000204610BDA0F10400F5E701218068FFF70A
:10322000EDBF00218068FFF7E9BFC06800F028B853
:10323000A0F10400FFF7F9BF0022C1608260044AD8
:1032400010B502F1080424320460426010BD00BFD2
:10325000D0F5019070477047FFF7D5BC10B5044614
:103260004FF4F67118F03FFB204610BD10B5044630
:10327000FFF7F2FC014B2046236010BD08F60190D9
:1032800007B59830019005F060FE019803B05DF835
:1032900004EB0AF055BD70470020704737B5002396
:1032A0000F4C05468DF8073023781BB900F0EEF976
:1032B000012323700324EDB2013CA821284600F02D
:1032C000F9F914F0FF048DF807009DF80730DBB220
:1032D00003D19DF8070003B030BD512BECD1F8E7C6
:1032E0007614002013B500240221C0B28DF80740E7
:1032F00000F0E0F98DF807009DF8073003F00F03A8
:103300008DF807309DF80730052B01D98DF807405F
:103310009DF80720034B9DF807005A7000229A7011
:1033200002B010BD761400202DE9F74F2F4D164640
:1033300000230F46AC786A788DF80730A2424DD949
:10334000092C4ED804EB44035B00DBB2191D03F1DA
:10335000030B03F1060A0533C9B25FFA8BFB5FFA70
:103360008AFA5FFA83F8C4B2DFF88490204600F04E
:10337000A1F98DF807009DF8073059462046A9F8B5
:10338000003000F097F98DF8070051469DF807309E
:103390002046B9F800201B0203F4706313433B80FE
:1033A000A9F8003000F086F98DF8070041469DF835
:1033B00007302046A9F8003000F07CF98DF80700AE
:1033C0009DF80730B9F800201B0203F47063134323
:1033D000A9F800303380AB780133AB7003B0BDE89F
:1033E000F08F98469A469B461946BCE77614002013
:1033F000741400200122A421C0B200F049B90022B7
:10340000A421C0B200F044B9FFF7F9BF7047000033
:1034100010B5054CC82000F063F923781BB900F003
:1034200035F90123237010BD76140020002313B555
:103430000C46C0B201218DF8073000F03BF98DF841
:1034400007009DF80730236002B010BD2DE9F3415D
:103450001D461D4B002416465B788DF807408B42B5
:103460002CD909292DD801EB41014C00E4B2E11C13
:10347000E71D0834C9B2FFB2E4B25FFA80F84046F3
:1034800000F018F98DF807009DF807303946089AC2
:1034900040469B09136000F00DF98DF807009DF878
:1034A000073021464046336000F004F98DF80700EC
:1034B0009DF80720120902F004022A6002B0BDE85C
:1034C000F08127462146D8E77614002070B58AB0EF
:1034D000054601F0E5FD002855D14A4B00264A4C2F
:1034E0009D426E610CBF494A494A9D422A60494A41
:1034F000C5E901264FF00102C5E90766C5E90326C3
:10350000236B42D143F0800380204FF0020C05A9C9
:103510002363236B079603F080030193019B12231F
:10352000CDE9050304233C48CDE908C301F0B4F814
:103530004FF4807305A93848059301F0ADF8236C6A
:1035400032460F21482043F400032364236C03F424
:1035500000030293029B236A43F400032362236A5D
:1035600023F40003236200F0DDFD482000F00CFE90
:10357000492032460F2100F0D5FD492000F004FE1D
:10358000284601F0B0FB0AB070BD43F002034FF4CF
:103590008072022121482363236B079603F0020304
:1035A0000393039B1223CDE905230423CDE90813DC
:1035B00005A901F071F84FF4007305A917480593A8
:1035C00001F06AF8236C32460F211F2043F40013E8
:1035D0002364236C03F400130493049B236A43F4D1
:1035E00000132362236A23F40013236200F09AFD80
:1035F0001F2000F0C9FD202032460F2100F092FD6F
:103600002020BBE77C14002000380240005C004012
:103610000054004032279140001C02400004024048
:1036200030B54FF47A7485B005460294BDF8244055
:103630000194089C009401F0C1FB044628B128467F
:1036400001F0A3FB2846FFF741FF204605B030BD3F
:1036500030B54FF47A7485B005460294BDF8244025
:103660000194089C009401F05FFC044628B12846B0
:1036700001F08BFB2846FFF729FF204605B030BD3F
:103680000148FFF723BF00BF7C140020FFF7F8BFFD
:103690001FB58DF80F200DF10F02012300920A468D
:1036A000014601930248FFF7BBFF05B05DF804FB3C
:1036B0007C1400201FB500230A460DF10F018DF880
:1036C0000F3001230091014601930448FFF7C0FF2A
:1036D0009DF80F0005B05DF804FB00BF7C140020CE
:1036E00000F0D6BA2DE9F743214C0126214D4FF0C9
:1036F00000081027214681464FF6FF722846CDF874
:103700000480C4E90067C4E9026802F021FC304685
:1037100000F0BEFA022321464FF6FF722846C4E9A4
:103720000037C4E9026802F013FC032321464FF678
:10373000FF722846C4E900370823C4E9023802F0C2
:1037400007FC4FF4087321464FF6FF7201930423E0
:103750002846A660C4E90037019BE36002F0F8FB4D
:103760004946284603B0BDE8F04302F010BC00BF54
:10377000C8140020C4280120544B9A6B42F0010267
:1037800070B59A638EB09A6B064609A9504802F04C
:103790000102504C00250192019A1A6B42F48002FA
:1037A0001A631A6B02F480020292029A1A6B42F0B8
:1037B00004021A631A6B02F004020392039A1A6B52
:1037C00042F008021A631A6B02F008020492049A8B
:1037D0001A6B42F010021A631A6B02F01002059283
:1037E000059A1A6B42F020021A631A6B02F020024B
:1037F0000692069A1A6B42F040021A631A6B02F0A4
:1038000040020792079A1A6B42F080021A63012263
:103810001B6B03F080030893089B0223CDE90A3257
:103820000C930C230D930823099300F035FF4CF201
:10383000037309A92848099300F02EFF4FF68373FC
:1038400009A92648099300F027FF4FF63F0309A96D
:103850002348099300F020FF48F2331309A92148B7
:10386000099300F019FF282309A91F48099300F0C4
:1038700013FF80234FF400714FF4805025633463AD
:10388000E561A663C4E901534FF48063C4E90313FF
:103890004FF48043C4E905034FF400332046C4E9E4
:1038A00008350323C4E90A35104B236000F0CAFD34
:1038B000204600F047FD2A460F21382000F032FC58
:1038C000382000F061FC0EB070BD00BF003802402F
:1038D00000080240F4140020000C024000100240D6
:1038E0000014024000180240001C02401064024014
:1038F00038B5194C0721194B0422194D4FF40060BB
:1039000023600223E260AB61C5E90031C5E9022111
:10391000C5E90433102240230021C4E904234FF4F5
:103920008073A162C4E906314FF48053C4E90803EF
:103930002046C4E90111FFF71FFF29462046094C24
:1039400002F0D8FA003818BF0120207040F203605E
:10395000FFF7C8FE207838BDC4280120400100A030
:10396000D81400203400002008B5382000F01AFCDC
:10397000034B04480360BDE8084000F063BD00BF8E
:10398000106402405415002038B5094C094B2046FC
:10399000094D236002F0CEFA00384FF0000118BF45
:1039A000012028702046FFF7DFFF287838BD00BFD0
:1039B000C4280120400100A0350000200D4B10B5A7
:1039C000188070200C4B0D4C198023689847636851
:1039D0007020984751280BD1094B702008221C6099
:1039E000084B1870084B1A70E3689847002010BD08
:1039F0000320FCE7E6150020E81500200C0000205D
:103A0000E0150020B4150020E4150020154B37B553
:103A10000024054601A918780194FFF707FD0198D5
:103A2000182819D008D8102811D0142812D058B14D
